:030000000220BD1E
:10200000C28CE4FD7F011223B07BFF7A2179491253
:10201000224912003C540FF510E4FD7F011223B059
:102020007BFF7A21795F12224912003C540FF5118F
:10203000E4FD7F011223B07BFF7A217975122249DA
:1020400012003C540FF512E4FD7F011223B07BFF18
:102050007A21798B12224912003C540FF513E510B6
:102060002511C39512C39513F50FC394005016E4C0
:10207000FD7F021223B07BFF7A2179A1122249E56C
:102080000FF404F50FE50FC313F50FE4FDAF1012C5
:1020900023D77D03AF111223D77D06AF121223D7AA
:1020A0007D09AF131223D77D0CAF0F1223D78510F4
:1020B0000B85110C85120D85130ED28C22787FE4CE
:1020C000F6D8FD758118022104022358E493A3F881
:1020D000E493A34003F68001F208DFF48029E4933F
:1020E000A3F85407240CC8C333C4540F4420C88336
:1020F0004004F456800146F6DFE4800B0102040838
:10210000102040809023E3E47E019360BCA3FF5441
:102110003F30E509541FFEE493A360010ECF54C085
:1021200025E060A840B8E493A3FAE493A3F8E4930D
:10213000A3C8C582C8CAC583CAF0A3C8C582C8CA15
:10214000C583CADFE9DEE780BE696E6772657365C5
:10215000207469656D706F3120656E206D73006944
:102160006E6772657365207469656D706F32206586
:102170006E206D7300696E677265736520746965A2
:102180006D706F3320656E206D7300696E677265C8
:102190007365207469656D706F3420656E206D7392
:1021A000004572726F722100C294C2957F107E2723
:1021B00012230A12230A7F031223037F031223032D
:1021C0007F031223037F021223037F0212230312D1
:1021D00022F51222F57F0F1222F77F061222F77FD7
:1021E00001122303E4FF1223707FE87E0312230A07
:1021F0007F021223707FE87E0302230AC0E0C0D072
:1022000075D000C000C28C758CD8758AF0D28C0550
:10221000080509740B250AF8E6B50811E50AB403A8
:1022200005750A008002050A750800B296E509B531
:102230000F10E50FD394004004B2978002C2977547
:102240000900D000D0D0D0E0328B148A158916E472
:10225000F517AB14AA15A9168517827583001222EB
:10226000C8FF6028EF7804A2E713D8FBFF1223868B
:10227000AB14AA15A9168517827583001222C8FF10
:102280001223860517E517C3941040C622C0E0C08C
:10229000F0C083C082C0D075D000C000C001C002B1
:1022A000C003C004C005C006C007122000D007D07C
:1022B00006D005D004D003D002D001D000D0D0D0B9
:1022C00082D083D0F0D0E032BB010CE58229F582C8
:1022D000E5833AF583E0225006E92582F8E622BB41
:1022E000FE06E92582F8E222E58229F582E5833AB5
:1022F000F583E493227F081223707F887E131223D4
:102300000AE4FF1223707F887E13E4FDFCC3ED9F77
:10231000EC9E50070DBD00010C80F222EF700FFF04
:102320001223707FE87E0312230A7F0C800EE4FFE5
:102330001223707FE87E0312230A7F0D122370227E
:10234000E4FF1223707FE87E0312230A7F01122329
:10235000707FE87E0302230AC296C297D2A8D28A6F
:102360001223C41221A8122340122000D2AF80FEF3
:102370005390C0EF543F4290C294D2957F0A7E00A2
:1023800012230AC295225390C0EF543F4290D29438
:10239000D2957F0A7E0012230AC29522EF2430FBD9
:1023A0007804A2E713D8FBFF122386AF030223862B
:1023B000AB05BF01047F0880027F0C122370AF03BE
:1023C00012237022C28C5389F0438901758CD87511
:1023D0008AF0C28DD2A9228F187F021223B0AF18C3
:0D23E00002239C010800010900010A000011
:0340030002228D09
:03400B000221FC93
:00000001FF
